{
  "contractName": "DataProviderGroup",
  "abi": [
    {
      "inputs": [],
      "stateMutability": "nonpayable",
      "type": "constructor"
    },
    {
      "anonymous": false,
      "inputs": [],
      "name": "JobAssigned",
      "type": "event"
    },
    {
      "anonymous": false,
      "inputs": [
        {
          "indexed": true,
          "internalType": "string",
          "name": "finalModel",
          "type": "string"
        }
      ],
      "name": "JobCompleted",
      "type": "event"
    },
    {
      "anonymous": false,
      "inputs": [],
      "name": "JobFailed",
      "type": "event"
    },
    {
      "anonymous": false,
      "inputs": [
        {
          "indexed": true,
          "internalType": "string",
          "name": "previousModel",
          "type": "string"
        },
        {
          "indexed": true,
          "internalType": "string",
          "name": "trainingModel",
          "type": "string"
        },
        {
          "indexed": false,
          "internalType": "uint256",
          "name": "threshold",
          "type": "uint256"
        },
        {
          "indexed": false,
          "internalType": "uint256",
          "name": "learningRate",
          "type": "uint256"
        },
        {
          "indexed": false,
          "internalType": "uint256",
          "name": "batchSize",
          "type": "uint256"
        },
        {
          "indexed": false,
          "internalType": "uint256",
          "name": "roundNumber",
          "type": "uint256"
        }
      ],
      "name": "RoundStarted",
      "type": "event"
    },
    {
      "anonymous": false,
      "inputs": [
        {
          "indexed": true,
          "internalType": "string",
          "name": "initModel",
          "type": "string"
        },
        {
          "indexed": true,
          "internalType": "string",
          "name": "trainingModel",
          "type": "string"
        },
        {
          "indexed": false,
          "internalType": "uint256",
          "name": "threshold",
          "type": "uint256"
        },
        {
          "indexed": false,
          "internalType": "uint256",
          "name": "minimumPeerNumber",
          "type": "uint256"
        },
        {
          "indexed": false,
          "internalType": "uint256",
          "name": "learningRate",
          "type": "uint256"
        },
        {
          "indexed": false,
          "internalType": "uint256",
          "name": "batchSize",
          "type": "uint256"
        },
        {
          "indexed": false,
          "internalType": "uint256",
          "name": "iterationNumber",
          "type": "uint256"
        },
        {
          "indexed": false,
          "internalType": "uint256",
          "name": "taskDuration",
          "type": "uint256"
        }
      ],
      "name": "TaskStarted",
      "type": "event"
    },
    {
      "inputs": [
        {
          "internalType": "uint256",
          "name": "",
          "type": "uint256"
        },
        {
          "internalType": "uint256",
          "name": "",
          "type": "uint256"
        }
      ],
      "name": "activeMemberForEachRound",
      "outputs": [
        {
          "internalType": "address",
          "name": "",
          "type": "address"
        }
      ],
      "stateMutability": "view",
      "type": "function"
    },
    {
      "inputs": [],
      "name": "admin",
      "outputs": [
        {
          "internalType": "address",
          "name": "",
          "type": "address"
        }
      ],
      "stateMutability": "view",
      "type": "function"
    },
    {
      "inputs": [],
      "name": "finalModel",
      "outputs": [
        {
          "internalType": "string",
          "name": "",
          "type": "string"
        }
      ],
      "stateMutability": "view",
      "type": "function"
    },
    {
      "inputs": [
        {
          "internalType": "address",
          "name": "",
          "type": "address"
        }
      ],
      "name": "isGroupMember",
      "outputs": [
        {
          "internalType": "bool",
          "name": "",
          "type": "bool"
        }
      ],
      "stateMutability": "view",
      "type": "function"
    },
    {
      "inputs": [
        {
          "internalType": "address",
          "name": "",
          "type": "address"
        }
      ],
      "name": "isTrainer",
      "outputs": [
        {
          "internalType": "bool",
          "name": "",
          "type": "bool"
        }
      ],
      "stateMutability": "view",
      "type": "function"
    },
    {
      "inputs": [
        {
          "internalType": "address",
          "name": "",
          "type": "address"
        }
      ],
      "name": "isVerifier",
      "outputs": [
        {
          "internalType": "bool",
          "name": "",
          "type": "bool"
        }
      ],
      "stateMutability": "view",
      "type": "function"
    },
    {
      "inputs": [],
      "name": "rewardToken",
      "outputs": [
        {
          "internalType": "address",
          "name": "",
          "type": "address"
        }
      ],
      "stateMutability": "view",
      "type": "function"
    },
    {
      "inputs": [
        {
          "internalType": "address",
          "name": "",
          "type": "address"
        }
      ],
      "name": "stakeBalances",
      "outputs": [
        {
          "internalType": "uint256",
          "name": "",
          "type": "uint256"
        }
      ],
      "stateMutability": "view",
      "type": "function"
    },
    {
      "inputs": [
        {
          "internalType": "string",
          "name": "ipAddress",
          "type": "string"
        }
      ],
      "name": "joinGroup",
      "outputs": [],
      "stateMutability": "nonpayable",
      "type": "function"
    },
    {
      "inputs": [
        {
          "internalType": "uint256",
          "name": "amount",
          "type": "uint256"
        }
      ],
      "name": "withdrawStake",
      "outputs": [],
      "stateMutability": "nonpayable",
      "type": "function"
    },
    {
      "inputs": [
        {
          "internalType": "string",
          "name": "initModel",
          "type": "string"
        },
        {
          "internalType": "string",
          "name": "trainingModel",
          "type": "string"
        },
        {
          "internalType": "uint256",
          "name": "threshold",
          "type": "uint256"
        },
        {
          "internalType": "uint256",
          "name": "minimumPeerNumber",
          "type": "uint256"
        },
        {
          "internalType": "uint256",
          "name": "learningRate",
          "type": "uint256"
        },
        {
          "internalType": "uint256",
          "name": "batchSize",
          "type": "uint256"
        },
        {
          "internalType": "uint256",
          "name": "iterationNumber",
          "type": "uint256"
        },
        {
          "internalType": "uint256",
          "name": "taskDuration",
          "type": "uint256"
        },
        {
          "internalType": "uint256",
          "name": "bounty",
          "type": "uint256"
        }
      ],
      "name": "startTask",
      "outputs": [],
      "stateMutability": "nonpayable",
      "type": "function"
    },
    {
      "inputs": [
        {
          "internalType": "string",
          "name": "previousGM",
          "type": "string"
        },
        {
          "internalType": "string",
          "name": "trainingModel",
          "type": "string"
        },
        {
          "internalType": "uint256",
          "name": "roundNumber",
          "type": "uint256"
        },
        {
          "internalType": "uint256",
          "name": "threshold",
          "type": "uint256"
        },
        {
          "internalType": "uint256",
          "name": "learningRate",
          "type": "uint256"
        },
        {
          "internalType": "uint256",
          "name": "batchSize",
          "type": "uint256"
        }
      ],
      "name": "startRound",
      "outputs": [],
      "stateMutability": "nonpayable",
      "type": "function"
    },
    {
      "inputs": [
        {
          "internalType": "uint256",
          "name": "roundNumber",
          "type": "uint256"
        }
      ],
      "name": "joinActiveNode",
      "outputs": [],
      "stateMutability": "nonpayable",
      "type": "function"
    },
    {
      "inputs": [],
      "name": "assignJobs",
      "outputs": [],
      "stateMutability": "nonpayable",
      "type": "function"
    }
  ],
  "bytecode": "0x60806040523480156200001157600080fd5b5033600660006101000a81548173ffffffffffffffffffffffffffffffffffffffff021916908373ffffffffffffffffffffffffffffffffffffffff1602179055506040518060400160405280600d81526020017f416e64726f69642050686f6e650000000000000000000000000000000000000081525060089080519060200190620000a09291906200015a565b5060006009819055506040518060400160405280601681526020017f4b6579626f61726420496e70757420486973746f727900000000000000000000815250600a9080519060200190620000f69291906200015a565b506040518060400160405280600c81526020017f53616d706c6520496e7075740000000000000000000000000000000000000000815250600b9080519060200190620001449291906200015a565b5067016345785d8a0000600c8190555062000210565b828054600181600116156101000203166002900490600052602060002090601f016020900481019282620001925760008555620001de565b82601f10620001ad57805160ff1916838001178555620001de565b82800160010185558215620001de579182015b82811115620001dd578251825591602001919060010190620001c0565b5b509050620001ed9190620001f1565b5090565b5b808211156200020c576000816000905550600101620001f2565b5090565b61167280620002206000396000f3fe608060405234801561001057600080fd5b50600436106100ea5760003560e01c806391e0414a1161008c578063e80b301a11610066578063e80b301a146105a7578063ec029f4f146105d5578063f7c618c11461076e578063f851a440146107a2576100ea565b806391e0414a14610318578063c51f3a9914610372578063ceae22cb1461042d576100ea565b806350beca78116100c857806350beca78146101cf5780635ef8aa8d14610229578063889a7b8a1461028b5780638ce2d8f414610295576100ea565b806325d5971f146100ef578063331052181461011d5780633b317dab14610177575b600080fd5b61011b6004803603602081101561010557600080fd5b81019080803590602001909291905050506107d6565b005b61015f6004803603602081101561013357600080fd5b81019080803573ffffffffffffffffffffffffffffffffffffffff16906020019092919050505061096d565b60405180821515815260200191505060405180910390f35b6101b96004803603602081101561018d57600080fd5b81019080803573ffffffffffffffffffffffffffffffffffffffff16906020019092919050505061098d565b6040518082815260200191505060405180910390f35b610211600480360360208110156101e557600080fd5b81019080803573ffffffffffffffffffffffffffffffffffffffff1690602001909291905050506109a5565b60405180821515815260200191505060405180910390f35b61025f6004803603604081101561023f57600080fd5b8101908080359060200190929190803590602001909291905050506109c5565b604051808273ffffffffffffffffffffffffffffffffffffffff16815260200191505060405180910390f35b610293610a13565b005b61029d610af1565b6040518080602001828103825283818151815260200191508051906020019080838360005b838110156102dd5780820151818401526020810190506102c2565b50505050905090810190601f16801561030a5780820380516001836020036101000a031916815260200191505b509250505060405180910390f35b61035a6004803603602081101561032e57600080fd5b81019080803573ffffffffffffffffffffffffffffffffffffffff169060200190929190505050610b8f565b60405180821515815260200191505060405180910390f35b61042b6004803603602081101561038857600080fd5b81019080803590602001906401000000008111156103a557600080fd5b8201836020820111156103b757600080fd5b803590602001918460018302840111640100000000831117156103d957600080fd5b91908080601f016020809104026020016040519081016040528093929190818152602001838380828437600081840152601f19601f820116905080830192505050505050509192919290505050610baf565b005b6105a5600480360360c081101561044357600080fd5b810190808035906020019064010000000081111561046057600080fd5b82018360208201111561047257600080fd5b8035906020019184600183028401116401000000008311171561049457600080fd5b91908080601f016020809104026020016040519081016040528093929190818152602001838380828437600081840152601f19601f820116905080830192505050505050509192919290803590602001906401000000008111156104f757600080fd5b82018360208201111561050957600080fd5b8035906020019184600183028401116401000000008311171561052b57600080fd5b91908080601f016020809104026020016040519081016040528093929190818152602001838380828437600081840152601f19601f82011690508083019250505050505050919291929080359060200190929190803590602001909291908035906020019092919080359060200190929190505050610c67565b005b6105d3600480360360208110156105bd57600080fd5b8101908080359060200190929190505050610d80565b005b61076c60048036036101208110156105ec57600080fd5b810190808035906020019064010000000081111561060957600080fd5b82018360208201111561061b57600080fd5b8035906020019184600183028401116401000000008311171561063d57600080fd5b91908080601f016020809104026020016040519081016040528093929190818152602001838380828437600081840152601f19601f820116905080830192505050505050509192919290803590602001906401000000008111156106a057600080fd5b8201836020820111156106b257600080fd5b803590602001918460018302840111640100000000831117156106d457600080fd5b91908080601f016020809104026020016040519081016040528093929190818152602001838380828437600081840152601f19601f82011690508083019250505050505050919291929080359060200190929190803590602001909291908035906020019092919080359060200190929190803590602001909291908035906020019092919080359060200190929190505050610eb6565b005b6107766110e4565b604051808273ffffffffffffffffffffffffffffffffffffffff16815260200191505060405180910390f35b6107aa61110a565b604051808273ffffffffffffffffffffffffffffffffffffffff16815260200191505060405180910390f35b6000803373ffffffffffffffffffffffffffffffffffffffff1673ffffffffffffffffffffffffffffffffffffffff1681526020019081526020016000205481111561088a576040517f08c379a000000000000000000000000000000000000000000000000000000000815260040180806020018281038252601e8152602001807f4e6f7420656e6f75676820616d6f756e7420746f2077697468647261772e000081525060200191505060405180910390fd5b6108db816000803373ffffffffffffffffffffffffffffffffffffffff1673ffffffffffffffffffffffffffffffffffffffff1681526020019081526020016000205461113090919063ffffffff16565b6000803373ffffffffffffffffffffffffffffffffffffffff1673ffffffffffffffffffffffffffffffffffffffff1681526020019081526020016000208190555061096a3382600760009054906101000a900473ffffffffffffffffffffffffffffffffffffffff1673ffffffffffffffffffffffffffffffffffffffff166111b39092919063ffffffff16565b50565b60046020528060005260406000206000915054906101000a900460ff1681565b60006020528060005260406000206000915090505481565b60036020528060005260406000206000915054906101000a900460ff1681565b600260205281600052604060002081815481106109e157600080fd5b906000526020600020016000915091509054906101000a900473ffffffffffffffffffffffffffffffffffffffff1681565b6001600360003373ffffffffffffffffffffffffffffffffffffffff1673ffffffffffffffffffffffffffffffffffffffff16815260200190815260200160002060006101000a81548160ff0219169083151502179055506001600460003373ffffffffffffffffffffffffffffffffffffffff1673ffffffffffffffffffffffffffffffffffffffff16815260200190815260200160002060006101000a81548160ff0219169083151502179055507fc04287f4e967cce06308bf079c81719f17cde2e27ac7752ca9fb88581086a40560405160405180910390a1565b60058054600181600116156101000203166002900480601f016020809104026020016040519081016040528092919081815260200182805460018160011615610100020316600290048015610b875780601f10610b5c57610100808354040283529160200191610b87565b820191906000526020600020905b815481529060010190602001808311610b6a57829003601f168201915b505050505081565b60016020528060005260406000206000915054906101000a900460ff1681565b610bb7611255565b15610c645760016009540160098190555060008060003373ffffffffffffffffffffffffffffffffffffffff1673ffffffffffffffffffffffffffffffffffffffff1681526020019081526020016000208190555060018060003373ffffffffffffffffffffffffffffffffffffffff1673ffffffffffffffffffffffffffffffffffffffff16815260200190815260200160002060006101000a81548160ff0219169083151502179055505b50565b846040518082805190602001908083835b60208310610c9b5780518252602082019150602081019050602083039250610c78565b6001836020036101000a0380198251168184511680821785525050505050509050019150506040518091039020866040518082805190602001908083835b60208310610cfc5780518252602082019150602081019050602083039250610cd9565b6001836020036101000a03801982511681845116808217855250505050505090500191505060405180910390207f2029cea2a656493a27c36b2e9365dc9ab8835333af99cab0154555f21a73980e858585896040518085815260200184815260200183815260200182815260200194505050505060405180910390a3505050505050565b600160003373ffffffffffffffffffffffffffffffffffffffff1673ffffffffffffffffffffffffffffffffffffffff16815260200190815260200160002060009054906101000a900460ff16610e3f576040517f08c379a00000000000000000000000000000000000000000000000000000000081526004018080602001828103825260198152602001807f4e6f7420612076616c69642067726f7570206d656d6265722e0000000000000081525060200191505060405180910390fd5b60026000828152602001908152602001600020339080600181540180825580915050600190039060005260206000200160009091909190916101000a81548173ffffffffffffffffffffffffffffffffffffffff021916908373ffffffffffffffffffffffffffffffffffffffff16021790555050565b600160003373ffffffffffffffffffffffffffffffffffffffff1673ffffffffffffffffffffffffffffffffffffffff16815260200190815260200160002060009054906101000a900460ff16610f75576040517f08c379a00000000000000000000000000000000000000000000000000000000081526004018080602001828103825260198152602001807f4e6f7420612076616c69642067726f7570206d656d6265722e0000000000000081525060200191505060405180910390fd5b600c54811080610f86575060095486115b15610fb8577ff6da0b6aaf5c5b2aa1b43736ef16a25b4809e181c3e882b5e55d00b5bd6ac30e60405160405180910390a15b876040518082805190602001908083835b60208310610fec5780518252602082019150602081019050602083039250610fc9565b6001836020036101000a0380198251168184511680821785525050505050509050019150506040518091039020896040518082805190602001908083835b6020831061104d578051825260208201915060208101905060208303925061102a565b6001836020036101000a03801982511681845116808217855250505050505090500191505060405180910390207f9ccb987b23b9b95b813e0a60b3aa69d778c55a00a647918a957b8dd2a06aefc189898989898960405180878152602001868152602001858152602001848152602001838152602001828152602001965050505050505060405180910390a3505050505050505050565b600760009054906101000a900473ffffffffffffffffffffffffffffffffffffffff1681565b600660009054906101000a900473ffffffffffffffffffffffffffffffffffffffff1681565b6000828211156111a8576040517f08c379a000000000000000000000000000000000000000000000000000000000815260040180806020018281038252601e8152602001807f536166654d6174683a207375627472616374696f6e206f766572666c6f77000081525060200191505060405180910390fd5b818303905092915050565b6112508363a9059cbb60e01b8484604051602401808373ffffffffffffffffffffffffffffffffffffffff16815260200182815260200192505050604051602081830303815290604052907bffffffffffffffffffffffffffffffffffffffffffffffffffffffff19166020820180517bffffffffffffffffffffffffffffffffffffffffffffffffffffffff838183161783525050505061125e565b505050565b60006001905090565b60006112c0826040518060400160405280602081526020017f5361666545524332303a206c6f772d6c6576656c2063616c6c206661696c65648152508573ffffffffffffffffffffffffffffffffffffffff1661134d9092919063ffffffff16565b9050600081511115611348578080602001905160208110156112e157600080fd5b8101908080519060200190929190505050611347576040517f08c379a000000000000000000000000000000000000000000000000000000000815260040180806020018281038252602a815260200180611613602a913960400191505060405180910390fd5b5b505050565b606061135c8484600085611365565b90509392505050565b6060824710156113c0576040517f08c379a00000000000000000000000000000000000000000000000000000000081526004018080602001828103825260268152602001806115ed6026913960400191505060405180910390fd5b6113c98561150d565b61143b576040517f08c379a000000000000000000000000000000000000000000000000000000000815260040180806020018281038252601d8152602001807f416464726573733a2063616c6c20746f206e6f6e2d636f6e747261637400000081525060200191505060405180910390fd5b6000808673ffffffffffffffffffffffffffffffffffffffff1685876040518082805190602001908083835b6020831061148a5780518252602082019150602081019050602083039250611467565b6001836020036101000a03801982511681845116808217855250505050505090500191505060006040518083038185875af1925050503d80600081146114ec576040519150601f19603f3d011682016040523d82523d6000602084013e6114f1565b606091505b5091509150611501828286611520565b92505050949350505050565b600080823b905060008111915050919050565b60608315611530578290506115e5565b6000835111156115435782518084602001fd5b816040517f08c379a00000000000000000000000000000000000000000000000000000000081526004018080602001828103825283818151815260200191508051906020019080838360005b838110156115aa57808201518184015260208101905061158f565b50505050905090810190601f1680156115d75780820380516001836020036101000a031916815260200191505b509250505060405180910390fd5b939250505056fe416464726573733a20696e73756666696369656e742062616c616e636520666f722063616c6c5361666545524332303a204552433230206f7065726174696f6e20646964206e6f742073756363656564a2646970667358221220e5f1d4a4a2472ab1544b1d4b80d801f9f0623d20f126418739641caa298497ac64736f6c63430007060033",
  "immutableReferences": {},
  "source": "// SPDX-License-Identifier: UNLICENSED\npragma solidity >=0.6.6;\nimport \"@openzeppelin/contracts/token/ERC20/IERC20.sol\";\nimport \"@openzeppelin/contracts/token/ERC20/SafeERC20.sol\";\nimport \"@openzeppelin/contracts/math/SafeMath.sol\";\nimport \"@openzeppelin/contracts/utils/Address.sol\";\n\ncontract DataProviderGroup {\n    using SafeERC20 for IERC20;\n    using SafeMath for uint;\n    mapping(address => uint) public stakeBalances;\n    mapping(address => bool) public isGroupMember;\n\n    mapping(uint => address[]) public activeMemberForEachRound;\n    mapping(address => bool) public isTrainer;\n    mapping(address => bool) public isVerifier;\n\n    event TaskStarted(\n        string indexed initModel,\n        string indexed trainingModel,\n        uint threshold,\n        uint minimumPeerNumber,\n        uint learningRate,\n        uint batchSize,\n        uint iterationNumber,\n        uint taskDuration\n    );\n\n    event RoundStarted(\n        string indexed previousModel,\n        string indexed trainingModel,\n        uint threshold,\n        uint learningRate,\n        uint batchSize,\n        uint roundNumber\n    );\n\n    event JobAssigned();\n\n    event JobCompleted(\n        string indexed finalModel\n    );\n\n    event JobFailed();\n\n    string public finalModel;\n\n    address public admin;\n    address public rewardToken;\n\n    string deviceInfo;\n    uint peerTotalNumber;\n    string dataType;\n    string dataSample;\n\n    uint minimumBounty;\n\n    modifier onlyGroupMember() {\n        require(isGroupMember[msg.sender], 'Not a valid group member.');\n        _;\n    }\n\n    constructor () {\n        admin = msg.sender;\n        deviceInfo = 'Android Phone';\n        peerTotalNumber = 0;\n        dataType = 'Keyboard Input History';\n        dataSample = 'Sample Input';\n        minimumBounty = 100000000000000000; //1 reward token\n    }\n\n    function joinGroup(string memory ipAddress) public {\n        if(_isPeerEligible()){\n            peerTotalNumber = peerTotalNumber + 1;\n            stakeBalances[msg.sender] = 0;\n            isGroupMember[msg.sender] = true;\n        }\n    }\n\n    function withdrawStake(uint amount) public {\n        require(amount <= stakeBalances[msg.sender], 'Not enough amount to withdraw.');\n        stakeBalances[msg.sender] = stakeBalances[msg.sender].sub(amount);\n        IERC20(rewardToken).safeTransfer(msg.sender, amount);\n    }\n\n    function startTask(string memory initModel, string memory trainingModel, uint threshold, uint minimumPeerNumber, uint learningRate, uint batchSize, uint iterationNumber, uint taskDuration, uint bounty) public onlyGroupMember {\n        if(bounty < minimumBounty || minimumPeerNumber > peerTotalNumber) {\n            emit JobFailed();\n        }\n\n        emit TaskStarted(initModel,\n            trainingModel,\n            threshold,\n            minimumPeerNumber,\n            learningRate,\n            batchSize,\n            iterationNumber,\n            taskDuration);\n    }\n\n    function startRound(string memory previousGM, string memory trainingModel, uint roundNumber, uint threshold, uint learningRate, uint batchSize) public {\n        emit RoundStarted(previousGM,\n            trainingModel,\n            threshold,\n            learningRate,\n            batchSize,\n            roundNumber);\n    }\n\n    function joinActiveNode(uint roundNumber) public onlyGroupMember {\n        activeMemberForEachRound[roundNumber].push(msg.sender);\n    }\n\n    function assignJobs() public {\n        // use hash value and hash ring to assign each active node a job => either a trainer or a isVerifier\n        isTrainer[msg.sender] = true;\n        isVerifier[msg.sender] = true;\n        emit JobAssigned();\n    }\n\n    function _isPeerEligible() private returns (bool) {\n        // TODO: run a small learning task to verify if the node is eligible to do any related FL task\n        return true;\n    }\n}",
  "sourcePath": "/home/shuxiao/Repo/FLIncentiveSimulator/src/contracts/DataProviderGroup.sol",
  "compiler": {
    "name": "solc",
    "version": "0.7.6+commit.7338295f.Emscripten.clang"
  },
  "schemaVersion": "3.3.4",
  "updatedAt": "2021-04-08T19:33:42.725Z",
  "devdoc": {
    "kind": "dev",
    "methods": {},
    "version": 1
  },
  "userdoc": {
    "kind": "user",
    "methods": {},
    "version": 1
  }
}