{
  "contractName": "DataProvider",
  "abi": [
    {
      "inputs": [],
      "stateMutability": "nonpayable",
      "type": "constructor"
    },
    {
      "inputs": [
        {
          "internalType": "string",
          "name": "previousGM",
          "type": "string"
        },
        {
          "internalType": "uint256",
          "name": "learningRate",
          "type": "uint256"
        },
        {
          "internalType": "uint256",
          "name": "batchSize",
          "type": "uint256"
        }
      ],
      "name": "doTrainingJob",
      "outputs": [
        {
          "internalType": "string",
          "name": "newUpdate",
          "type": "string"
        }
      ],
      "stateMutability": "nonpayable",
      "type": "function"
    },
    {
      "inputs": [
        {
          "internalType": "string",
          "name": "previoudGM",
          "type": "string"
        },
        {
          "internalType": "string",
          "name": "newUpdate",
          "type": "string"
        },
        {
          "internalType": "uint256",
          "name": "lossFunction",
          "type": "uint256"
        }
      ],
      "name": "doVerifyJob",
      "outputs": [
        {
          "internalType": "string",
          "name": "val_newUpdate",
          "type": "string"
        },
        {
          "internalType": "uint256",
          "name": "val_lossFunction",
          "type": "uint256"
        }
      ],
      "stateMutability": "nonpayable",
      "type": "function"
    }
  ],
  "bytecode": "0x608060405234801561001057600080fd5b50336000806101000a81548173ffffffffffffffffffffffffffffffffffffffff021916908373ffffffffffffffffffffffffffffffffffffffff1602179055506103e9806100606000396000f3fe608060405234801561001057600080fd5b50600436106100365760003560e01c8063932906cb1461003b578063ecd1275414610183575b600080fd5b6101086004803603606081101561005157600080fd5b810190808035906020019064010000000081111561006e57600080fd5b82018360208201111561008057600080fd5b803590602001918460018302840111640100000000831117156100a257600080fd5b91908080601f016020809104026020016040519081016040528093929190818152602001838380828437600081840152601f19601f820116905080830192505050505050509192919290803590602001909291908035906020019092919050505061035f565b6040518080602001828103825283818151815260200191508051906020019080838360005b8381101561014857808201518184015260208101905061012d565b50505050905090810190601f1680156101755780820380516001836020036101000a031916815260200191505b509250505060405180910390f35b6102dd6004803603606081101561019957600080fd5b81019080803590602001906401000000008111156101b657600080fd5b8201836020820111156101c857600080fd5b803590602001918460018302840111640100000000831117156101ea57600080fd5b91908080601f016020809104026020016040519081016040528093929190818152602001838380828437600081840152601f19601f8201169050808301925050505050505091929192908035906020019064010000000081111561024d57600080fd5b82018360208201111561025f57600080fd5b8035906020019184600183028401116401000000008311171561028157600080fd5b91908080601f016020809104026020016040519081016040528093929190818152602001838380828437600081840152601f19601f820116905080830192505050505050509192919290803590602001909291905050506103a0565b6040518080602001838152602001828103825284818151815260200191508051906020019080838360005b83811015610323578082015181840152602081019050610308565b50505050905090810190601f1680156103505780820380516001836020036101000a031916815260200191505b50935050505060405180910390f35b60606040518060400160405280600a81526020017f4e6577205570646174650000000000000000000000000000000000000000000081525090509392505050565b606060008360649150915093509391505056fea2646970667358221220ed3bba00aff199ad259d166a614a7999cacc0784d35a79aa24bcfd1e266879eb64736f6c63430007060033",
  "immutableReferences": {},
  "source": "// SPDX-License-Identifier: UNLICENSED\npragma solidity >=0.6.6;\n\nimport \"@openzeppelin/contracts/token/ERC20/SafeERC20.sol\";\nimport \"@openzeppelin/contracts/math/SafeMath.sol\";\nimport \"@openzeppelin/contracts/utils/Address.sol\";\n\ncontract DataProvider {\n    using SafeMath for uint;\n    using SafeERC20 for IERC20;\n    using Address for address;\n\n    address owner;\n\n    constructor() {\n        owner = msg.sender;\n    }\n\n    function doTrainingJob(string memory previousGM, uint learningRate, uint batchSize) public returns (string memory newUpdate){\n        //\n        newUpdate = \"New Update\";\n        return newUpdate;\n    }\n\n    function doVerifyJob(string memory previoudGM, string memory newUpdate, uint lossFunction) public returns (string memory val_newUpdate, uint val_lossFunction){\n        return (newUpdate, 100);\n    }\n}",
  "sourcePath": "/home/shuxiao/Repo/FLIncentiveSimulator/src/contracts/DataProvider.sol",
  "compiler": {
    "name": "solc",
    "version": "0.7.6+commit.7338295f.Emscripten.clang"
  },
  "schemaVersion": "3.3.4",
  "updatedAt": "2021-04-08T19:33:42.724Z",
  "devdoc": {
    "kind": "dev",
    "methods": {},
    "version": 1
  },
  "userdoc": {
    "kind": "user",
    "methods": {},
    "version": 1
  }
}