{
  "contractName": "GlobalModelChannel",
  "abi": [
    {
      "inputs": [],
      "stateMutability": "nonpayable",
      "type": "constructor"
    },
    {
      "inputs": [],
      "name": "DECIMALBASE",
      "outputs": [
        {
          "internalType": "uint256",
          "name": "",
          "type": "uint256"
        }
      ],
      "stateMutability": "view",
      "type": "function"
    },
    {
      "inputs": [],
      "name": "admin",
      "outputs": [
        {
          "internalType": "address",
          "name": "",
          "type": "address"
        }
      ],
      "stateMutability": "view",
      "type": "function"
    },
    {
      "inputs": [],
      "name": "bounty",
      "outputs": [
        {
          "internalType": "uint256",
          "name": "",
          "type": "uint256"
        }
      ],
      "stateMutability": "view",
      "type": "function"
    },
    {
      "inputs": [],
      "name": "configuration",
      "outputs": [
        {
          "internalType": "string",
          "name": "trainingModel",
          "type": "string"
        },
        {
          "internalType": "uint256",
          "name": "learningRate",
          "type": "uint256"
        },
        {
          "internalType": "uint256",
          "name": "batchSize",
          "type": "uint256"
        },
        {
          "internalType": "uint256",
          "name": "iterationNumber",
          "type": "uint256"
        },
        {
          "internalType": "uint256",
          "name": "taskDuration",
          "type": "uint256"
        }
      ],
      "stateMutability": "view",
      "type": "function"
    },
    {
      "inputs": [],
      "name": "dataProviderGroup",
      "outputs": [
        {
          "internalType": "contract DataProviderGroup",
          "name": "",
          "type": "address"
        }
      ],
      "stateMutability": "view",
      "type": "function"
    },
    {
      "inputs": [],
      "name": "gmInfo",
      "outputs": [
        {
          "internalType": "string",
          "name": "initModel",
          "type": "string"
        },
        {
          "internalType": "uint256",
          "name": "threshold",
          "type": "uint256"
        },
        {
          "internalType": "uint256",
          "name": "minimumPeerNumber",
          "type": "uint256"
        }
      ],
      "stateMutability": "view",
      "type": "function"
    },
    {
      "inputs": [],
      "name": "rewardToken",
      "outputs": [
        {
          "internalType": "address",
          "name": "",
          "type": "address"
        }
      ],
      "stateMutability": "view",
      "type": "function"
    },
    {
      "inputs": [
        {
          "internalType": "address",
          "name": "groupAddress",
          "type": "address"
        }
      ],
      "name": "selectGroup",
      "outputs": [],
      "stateMutability": "nonpayable",
      "type": "function"
    },
    {
      "inputs": [],
      "name": "startTask",
      "outputs": [],
      "stateMutability": "nonpayable",
      "type": "function"
    },
    {
      "inputs": [
        {
          "internalType": "string",
          "name": "finalModel",
          "type": "string"
        },
        {
          "internalType": "uint256",
          "name": "lossFunction",
          "type": "uint256"
        }
      ],
      "name": "completeTask",
      "outputs": [],
      "stateMutability": "nonpayable",
      "type": "function"
    }
  ],
  "bytecode": "0x608060405261271060045534801561001657600080fd5b50336000806101000a81548173ffffffffffffffffffffffffffffffffffffffff021916908373ffffffffffffffffffffffffffffffffffffffff1602179055506040518060400160405280600a81526020017f496e6974204d6f64656c00000000000000000000000000000000000000000000815250600560000190805190602001906100a5929190610133565b50600a600560020181905550612328600560010181905550600a6008600101819055506040518060400160405280600e81526020017f547261696e696e67204d6f64656c00000000000000000000000000000000000081525060086000019080519060200190610116929190610133565b5060326008600201819055506103e86008600301819055506101de565b828054600181600116156101000203166002900490600052602060002090601f01602090048101928261016957600085556101b0565b82601f1061018257805160ff19168380011785556101b0565b828001600101855582156101b0579182015b828111156101af578251825591602001919060010190610194565b5b5090506101bd91906101c1565b5090565b5b808211156101da5760008160009055506001016101c2565b5090565b6109aa806101ed6000396000f3fe608060405234801561001057600080fd5b506004361061009e5760003560e01c8063943dfef111610066578063943dfef11461023f578063f7c618c11461025d578063f851a44014610291578063fbba3e5a146102c5578063fe781f12146102f95761009e565b80630c2bdbdf146100a357806314388bd1146100e75780631a2aa5ba146101055780632563d4b7146101965780636c70bee9146101a0575b600080fd5b6100e5600480360360208110156100b957600080fd5b81019080803573ffffffffffffffffffffffffffffffffffffffff1690602001909291905050506103be565b005b6100ef610402565b6040518082815260200191505060405180910390f35b61010d610408565b6040518080602001848152602001838152602001828103825285818151815260200191508051906020019080838360005b8381101561015957808201518184015260208101905061013e565b50505050905090810190601f1680156101865780820380516001836020036101000a031916815260200191505b5094505050505060405180910390f35b61019e6104b8565b005b6101a86106b3565b6040518080602001868152602001858152602001848152602001838152602001828103825287818151815260200191508051906020019080838360005b838110156102005780820151818401526020810190506101e5565b50505050905090810190601f16801561022d5780820380516001836020036101000a031916815260200191505b50965050505050505060405180910390f35b61024761076f565b6040518082815260200191505060405180910390f35b610265610775565b604051808273ffffffffffffffffffffffffffffffffffffffff16815260200191505060405180910390f35b61029961079b565b604051808273ffffffffffffffffffffffffffffffffffffffff16815260200191505060405180910390f35b6102cd6107bf565b604051808273ffffffffffffffffffffffffffffffffffffffff16815260200191505060405180910390f35b6103bc6004803603604081101561030f57600080fd5b810190808035906020019064010000000081111561032c57600080fd5b82018360208201111561033e57600080fd5b8035906020019184600183028401116401000000008311171561036057600080fd5b91908080601f016020809104026020016040519081016040528093929190818152602001838380828437600081840152601f19601f820116905080830192505050505050509192919290803590602001909291905050506107e5565b005b80600360006101000a81548173ffffffffffffffffffffffffffffffffffffffff021916908373ffffffffffffffffffffffffffffffffffffffff16021790555050565b60045481565b6005806000018054600181600116156101000203166002900480601f0160208091040260200160405190810160405280929190818152602001828054600181600116156101000203166002900480156104a25780601f10610477576101008083540402835291602001916104a2565b820191906000526020600020905b81548152906001019060200180831161048557829003601f168201915b5050505050908060010154908060020154905083565b600360009054906101000a900473ffffffffffffffffffffffffffffffffffffffff1673ffffffffffffffffffffffffffffffffffffffff1663ec029f4f600560000160086000016005600101546005600201546008600101546008600201546008600301546008600401546002546040518a63ffffffff1660e01b81526004018080602001806020018a815260200189815260200188815260200187815260200186815260200185815260200184815260200183810383528c8181546001816001161561010002031660029004815260200191508054600181600116156101000203166002900480156105ed5780601f106105c2576101008083540402835291602001916105ed565b820191906000526020600020905b8154815290600101906020018083116105d057829003601f168201915b505083810382528b8181546001816001161561010002031660029004815260200191508054600181600116156101000203166002900480156106705780601f1061064557610100808354040283529160200191610670565b820191906000526020600020905b81548152906001019060200180831161065357829003601f168201915b50509b505050505050505050505050600060405180830381600087803b15801561069957600080fd5b505af11580156106ad573d6000803e3d6000fd5b50505050565b6008806000018054600181600116156101000203166002900480601f01602080910402602001604051908101604052809291908181526020018280546001816001161561010002031660029004801561074d5780601f106107225761010080835404028352916020019161074d565b820191906000526020600020905b81548152906001019060200180831161073057829003601f168201915b5050505050908060010154908060020154908060030154908060040154905085565b60025481565b600160009054906101000a900473ffffffffffffffffffffffffffffffffffffffff1681565b60008054906101000a900473ffffffffffffffffffffffffffffffffffffffff1681565b600360009054906101000a900473ffffffffffffffffffffffffffffffffffffffff1681565b600560010154811161085f576040517f08c379a000000000000000000000000000000000000000000000000000000000815260040180806020018281038252601a8152602001807f446f6573206e6f74206d656574206578706563746174696f6e2e00000000000081525060200191505060405180910390fd5b600160009054906101000a900473ffffffffffffffffffffffffffffffffffffffff1673ffffffffffffffffffffffffffffffffffffffff166323b872dd30600360009054906101000a900473ffffffffffffffffffffffffffffffffffffffff166002546040518463ffffffff1660e01b8152600401808473ffffffffffffffffffffffffffffffffffffffff1681526020018373ffffffffffffffffffffffffffffffffffffffff1681526020018281526020019350505050602060405180830381600087803b15801561093457600080fd5b505af1158015610948573d6000803e3d6000fd5b505050506040513d602081101561095e57600080fd5b810190808051906020019092919050505050505056fea26469706673582212205f9beeba3106173e19afd7e286c9a7b5593ae84bffa50845060fa0ea1ba4579964736f6c63430007060033",
  "immutableReferences": {},
  "source": "// SPDX-License-Identifier: UNLICENSED\npragma solidity >=0.6.6;\nimport \"@openzeppelin/contracts/token/ERC20/IERC20.sol\";\nimport \"@openzeppelin/contracts/token/ERC20/SafeERC20.sol\";\nimport \"@openzeppelin/contracts/math/SafeMath.sol\";\nimport \"@openzeppelin/contracts/utils/Address.sol\";\n\nimport \"./DataProviderGroup.sol\";\n\ncontract GlobalModelChannel {\n    using SafeERC20 for IERC20;\n    using SafeMath for uint;\n\n    address public admin;\n    address public rewardToken;\n    uint public bounty;\n\n    DataProviderGroup public dataProviderGroup;\n    uint public DECIMALBASE = 10000;\n\n    struct GMInfo {\n        string initModel;\n        uint threshold;\n        uint minimumPeerNumber;\n    }\n\n    struct Configuration {\n        string trainingModel;\n        uint learningRate;\n        uint batchSize;\n        uint iterationNumber;\n        uint taskDuration;\n    }\n\n    GMInfo public gmInfo;\n    Configuration public configuration;\n\n    // admin can create channel\n    constructor () public {\n        admin = msg.sender;\n        gmInfo.initModel = \"Init Model\";\n        gmInfo.minimumPeerNumber = 10;\n        gmInfo.threshold = 9000; //DECIMALBASE 10000, threshold is 90%\n        configuration.learningRate = 10;\n        configuration.trainingModel = \"Training Model\";\n        configuration.batchSize = 50;\n        configuration.iterationNumber = 1000;\n    }\n\n    function selectGroup(address groupAddress) public {\n        dataProviderGroup = DataProviderGroup(groupAddress);\n    }\n\n    function startTask() public {\n        dataProviderGroup.startTask(gmInfo.initModel,\n            configuration.trainingModel,\n            gmInfo.threshold,\n            gmInfo.minimumPeerNumber,\n            configuration.learningRate,\n            configuration.batchSize,\n            configuration.iterationNumber,\n            configuration.taskDuration,\n            bounty);\n    }\n\n    function completeTask(string memory finalModel, uint lossFunction) public {\n        require(lossFunction > gmInfo.threshold, \"Does not meet expectation.\");\n        IERC20(rewardToken).transferFrom(address(this), address(dataProviderGroup), bounty);\n    }\n}",
  "sourcePath": "/home/shuxiao/Repo/FLIncentiveSimulator/src/contracts/GlobalModelChannel.sol",
  "compiler": {
    "name": "solc",
    "version": "0.7.6+commit.7338295f.Emscripten.clang"
  },
  "schemaVersion": "3.3.4",
  "updatedAt": "2021-04-08T19:33:42.735Z",
  "devdoc": {
    "kind": "dev",
    "methods": {},
    "version": 1
  },
  "userdoc": {
    "kind": "user",
    "methods": {},
    "version": 1
  }
}